{
  "_format": "hh-sol-artifact-1",
  "contractName": "OROBadge",
  "sourceName": "contracts/OROBadge.sol",
  "abi": [
    {
      "inputs": [
        {
          "internalType": "address",
          "name": "initialOwner",
          "type": "address"
        },
        {
          "internalType": "string",
          "name": "baseMetadataURI",
          "type": "string"
        }
      ],
      "stateMutability": "nonpayable",
      "type": "constructor"
    },
    {
      "inputs": [
        {
          "internalType": "address",
          "name": "sender",
          "type": "address"
        },
        {
          "internalType": "uint256",
          "name": "tokenId",
          "type": "uint256"
        },
        {
          "internalType": "address",
          "name": "owner",
          "type": "address"
        }
      ],
      "name": "ERC721IncorrectOwner",
      "type": "error"
    },
    {
      "inputs": [
        {
          "internalType": "address",
          "name": "operator",
          "type": "address"
        },
        {
          "internalType": "uint256",
          "name": "tokenId",
          "type": "uint256"
        }
      ],
      "name": "ERC721InsufficientApproval",
      "type": "error"
    },
    {
      "inputs": [
        {
          "internalType": "address",
          "name": "approver",
          "type": "address"
        }
      ],
      "name": "ERC721InvalidApprover",
      "type": "error"
    },
    {
      "inputs": [
        {
          "internalType": "address",
          "name": "operator",
          "type": "address"
        }
      ],
      "name": "ERC721InvalidOperator",
      "type": "error"
    },
    {
      "inputs": [
        {
          "internalType": "address",
          "name": "owner",
          "type": "address"
        }
      ],
      "name": "ERC721InvalidOwner",
      "type": "error"
    },
    {
      "inputs": [
        {
          "internalType": "address",
          "name": "receiver",
          "type": "address"
        }
      ],
      "name": "ERC721InvalidReceiver",
      "type": "error"
    },
    {
      "inputs": [
        {
          "internalType": "address",
          "name": "sender",
          "type": "address"
        }
      ],
      "name": "ERC721InvalidSender",
      "type": "error"
    },
    {
      "inputs": [
        {
          "internalType": "uint256",
          "name": "tokenId",
          "type": "uint256"
        }
      ],
      "name": "ERC721NonexistentToken",
      "type": "error"
    },
    {
      "inputs": [
        {
          "internalType": "address",
          "name": "owner",
          "type": "address"
        }
      ],
      "name": "OwnableInvalidOwner",
      "type": "error"
    },
    {
      "inputs": [
        {
          "internalType": "address",
          "name": "account",
          "type": "address"
        }
      ],
      "name": "OwnableUnauthorizedAccount",
      "type": "error"
    },
    {
      "inputs": [
        {
          "internalType": "uint256",
          "name": "value",
          "type": "uint256"
        },
        {
          "internalType": "uint256",
          "name": "length",
          "type": "uint256"
        }
      ],
      "name": "StringsInsufficientHexLength",
      "type": "error"
    },
    {
      "anonymous": false,
      "inputs": [
        {
          "indexed": true,
          "internalType": "address",
          "name": "owner",
          "type": "address"
        },
        {
          "indexed": true,
          "internalType": "address",
          "name": "approved",
          "type": "address"
        },
        {
          "indexed": true,
          "internalType": "uint256",
          "name": "tokenId",
          "type": "uint256"
        }
      ],
      "name": "Approval",
      "type": "event"
    },
    {
      "anonymous": false,
      "inputs": [
        {
          "indexed": true,
          "internalType": "address",
          "name": "owner",
          "type": "address"
        },
        {
          "indexed": true,
          "internalType": "address",
          "name": "operator",
          "type": "address"
        },
        {
          "indexed": false,
          "internalType": "bool",
          "name": "approved",
          "type": "bool"
        }
      ],
      "name": "ApprovalForAll",
      "type": "event"
    },
    {
      "anonymous": false,
      "inputs": [
        {
          "indexed": true,
          "internalType": "address",
          "name": "wallet",
          "type": "address"
        },
        {
          "indexed": true,
          "internalType": "uint256",
          "name": "tokenId",
          "type": "uint256"
        }
      ],
      "name": "BadgeMinted",
      "type": "event"
    },
    {
      "anonymous": false,
      "inputs": [
        {
          "indexed": true,
          "internalType": "address",
          "name": "wallet",
          "type": "address"
        },
        {
          "indexed": true,
          "internalType": "uint256",
          "name": "tokenId",
          "type": "uint256"
        }
      ],
      "name": "BadgeUpdated",
      "type": "event"
    },
    {
      "anonymous": false,
      "inputs": [
        {
          "indexed": false,
          "internalType": "string",
          "name": "newBaseMetadataURI",
          "type": "string"
        }
      ],
      "name": "BaseMetadataUpdated",
      "type": "event"
    },
    {
      "anonymous": false,
      "inputs": [
        {
          "indexed": true,
          "internalType": "address",
          "name": "minter",
          "type": "address"
        },
        {
          "indexed": false,
          "internalType": "bool",
          "name": "allowed",
          "type": "bool"
        }
      ],
      "name": "MinterUpdated",
      "type": "event"
    },
    {
      "anonymous": false,
      "inputs": [
        {
          "indexed": true,
          "internalType": "address",
          "name": "previousOwner",
          "type": "address"
        },
        {
          "indexed": true,
          "internalType": "address",
          "name": "newOwner",
          "type": "address"
        }
      ],
      "name": "OwnershipTransferred",
      "type": "event"
    },
    {
      "anonymous": false,
      "inputs": [
        {
          "indexed": true,
          "internalType": "address",
          "name": "from",
          "type": "address"
        },
        {
          "indexed": true,
          "internalType": "address",
          "name": "to",
          "type": "address"
        },
        {
          "indexed": true,
          "internalType": "uint256",
          "name": "tokenId",
          "type": "uint256"
        }
      ],
      "name": "Transfer",
      "type": "event"
    },
    {
      "inputs": [
        {
          "internalType": "address",
          "name": "",
          "type": "address"
        },
        {
          "internalType": "uint256",
          "name": "",
          "type": "uint256"
        }
      ],
      "name": "approve",
      "outputs": [],
      "stateMutability": "pure",
      "type": "function"
    },
    {
      "inputs": [
        {
          "internalType": "address",
          "name": "owner",
          "type": "address"
        }
      ],
      "name": "balanceOf",
      "outputs": [
        {
          "internalType": "uint256",
          "name": "",
          "type": "uint256"
        }
      ],
      "stateMutability": "view",
      "type": "function"
    },
    {
      "inputs": [
        {
          "internalType": "uint256",
          "name": "",
          "type": "uint256"
        }
      ],
      "name": "getApproved",
      "outputs": [
        {
          "internalType": "address",
          "name": "",
          "type": "address"
        }
      ],
      "stateMutability": "pure",
      "type": "function"
    },
    {
      "inputs": [],
      "name": "getBaseMetadataURI",
      "outputs": [
        {
          "internalType": "string",
          "name": "",
          "type": "string"
        }
      ],
      "stateMutability": "view",
      "type": "function"
    },
    {
      "inputs": [
        {
          "internalType": "address",
          "name": "wallet",
          "type": "address"
        }
      ],
      "name": "getTokenId",
      "outputs": [
        {
          "internalType": "uint256",
          "name": "",
          "type": "uint256"
        }
      ],
      "stateMutability": "pure",
      "type": "function"
    },
    {
      "inputs": [
        {
          "internalType": "address",
          "name": "",
          "type": "address"
        },
        {
          "internalType": "address",
          "name": "",
          "type": "address"
        }
      ],
      "name": "isApprovedForAll",
      "outputs": [
        {
          "internalType": "bool",
          "name": "",
          "type": "bool"
        }
      ],
      "stateMutability": "pure",
      "type": "function"
    },
    {
      "inputs": [
        {
          "internalType": "address",
          "name": "wallet",
          "type": "address"
        }
      ],
      "name": "isMinted",
      "outputs": [
        {
          "internalType": "bool",
          "name": "",
          "type": "bool"
        }
      ],
      "stateMutability": "view",
      "type": "function"
    },
    {
      "inputs": [
        {
          "internalType": "address",
          "name": "wallet",
          "type": "address"
        }
      ],
      "name": "mintOrUpdate",
      "outputs": [],
      "stateMutability": "nonpayable",
      "type": "function"
    },
    {
      "inputs": [
        {
          "internalType": "address",
          "name": "",
          "type": "address"
        }
      ],
      "name": "minters",
      "outputs": [
        {
          "internalType": "bool",
          "name": "",
          "type": "bool"
        }
      ],
      "stateMutability": "view",
      "type": "function"
    },
    {
      "inputs": [],
      "name": "name",
      "outputs": [
        {
          "internalType": "string",
          "name": "",
          "type": "string"
        }
      ],
      "stateMutability": "view",
      "type": "function"
    },
    {
      "inputs": [],
      "name": "owner",
      "outputs": [
        {
          "internalType": "address",
          "name": "",
          "type": "address"
        }
      ],
      "stateMutability": "view",
      "type": "function"
    },
    {
      "inputs": [
        {
          "internalType": "uint256",
          "name": "tokenId",
          "type": "uint256"
        }
      ],
      "name": "ownerOf",
      "outputs": [
        {
          "internalType": "address",
          "name": "",
          "type": "address"
        }
      ],
      "stateMutability": "view",
      "type": "function"
    },
    {
      "inputs": [],
      "name": "renounceOwnership",
      "outputs": [],
      "stateMutability": "nonpayable",
      "type": "function"
    },
    {
      "inputs": [
        {
          "internalType": "address",
          "name": "from",
          "type": "address"
        },
        {
          "internalType": "address",
          "name": "to",
          "type": "address"
        },
        {
          "internalType": "uint256",
          "name": "tokenId",
          "type": "uint256"
        }
      ],
      "name": "safeTransferFrom",
      "outputs": [],
      "stateMutability": "nonpayable",
      "type": "function"
    },
    {
      "inputs": [
        {
          "internalType": "address",
          "name": "from",
          "type": "address"
        },
        {
          "internalType": "address",
          "name": "to",
          "type": "address"
        },
        {
          "internalType": "uint256",
          "name": "tokenId",
          "type": "uint256"
        },
        {
          "internalType": "bytes",
          "name": "data",
          "type": "bytes"
        }
      ],
      "name": "safeTransferFrom",
      "outputs": [],
      "stateMutability": "nonpayable",
      "type": "function"
    },
    {
      "inputs": [
        {
          "internalType": "address",
          "name": "",
          "type": "address"
        },
        {
          "internalType": "bool",
          "name": "",
          "type": "bool"
        }
      ],
      "name": "setApprovalForAll",
      "outputs": [],
      "stateMutability": "pure",
      "type": "function"
    },
    {
      "inputs": [
        {
          "internalType": "string",
          "name": "newBaseMetadataURI",
          "type": "string"
        }
      ],
      "name": "setBaseMetadata",
      "outputs": [],
      "stateMutability": "nonpayable",
      "type": "function"
    },
    {
      "inputs": [
        {
          "internalType": "address",
          "name": "minter",
          "type": "address"
        },
        {
          "internalType": "bool",
          "name": "allowed",
          "type": "bool"
        }
      ],
      "name": "setMinter",
      "outputs": [],
      "stateMutability": "nonpayable",
      "type": "function"
    },
    {
      "inputs": [
        {
          "internalType": "bytes4",
          "name": "interfaceId",
          "type": "bytes4"
        }
      ],
      "name": "supportsInterface",
      "outputs": [
        {
          "internalType": "bool",
          "name": "",
          "type": "bool"
        }
      ],
      "stateMutability": "view",
      "type": "function"
    },
    {
      "inputs": [],
      "name": "symbol",
      "outputs": [
        {
          "internalType": "string",
          "name": "",
          "type": "string"
        }
      ],
      "stateMutability": "view",
      "type": "function"
    },
    {
      "inputs": [
        {
          "internalType": "uint256",
          "name": "tokenId",
          "type": "uint256"
        }
      ],
      "name": "tokenURI",
      "outputs": [
        {
          "internalType": "string",
          "name": "",
          "type": "string"
        }
      ],
      "stateMutability": "view",
      "type": "function"
    },
    {
      "inputs": [
        {
          "internalType": "address",
          "name": "from",
          "type": "address"
        },
        {
          "internalType": "address",
          "name": "to",
          "type": "address"
        },
        {
          "internalType": "uint256",
          "name": "tokenId",
          "type": "uint256"
        }
      ],
      "name": "transferFrom",
      "outputs": [],
      "stateMutability": "nonpayable",
      "type": "function"
    },
    {
      "inputs": [
        {
          "internalType": "address",
          "name": "newOwner",
          "type": "address"
        }
      ],
      "name": "transferOwnership",
      "outputs": [],
      "stateMutability": "nonpayable",
      "type": "function"
    }
  ],
  "bytecode": "0x60806040523480156200001157600080fd5b5060405162001a7838038062001a78833981016040819052620000349162000171565b81604051806040016040528060098152602001684f524f20426164676560b81b815250604051806040016040528060038152602001624f524f60e81b8152508160009081620000849190620002f8565b506001620000938282620002f8565b5050506001600160a01b038116620000c557604051631e4fbdf760e01b81526000600482015260240160405180910390fd5b620000d08162000109565b506007620000df8282620002f8565b50506001600160a01b03166000908152600860205260409020805460ff19166001179055620003c4565b600680546001600160a01b038381166001600160a01b0319831681179093556040519116919082907f8be0079c531659141344cd1fd0a4f28419497f9722a3daafe3b4186f6b6457e090600090a35050565b634e487b7160e01b600052604160045260246000fd5b600080604083850312156200018557600080fd5b82516001600160a01b03811681146200019d57600080fd5b602084810151919350906001600160401b0380821115620001bd57600080fd5b818601915086601f830112620001d257600080fd5b815181811115620001e757620001e76200015b565b604051601f8201601f19908116603f011681019083821181831017156200021257620002126200015b565b8160405282815289868487010111156200022b57600080fd5b600093505b828410156200024f578484018601518185018701529285019262000230565b60008684830101528096505050505050509250929050565b600181811c908216806200027c57607f821691505b6020821081036200029d57634e487b7160e01b600052602260045260246000fd5b50919050565b601f821115620002f3576000816000526020600020601f850160051c81016020861015620002ce5750805b601f850160051c820191505b81811015620002ef57828155600101620002da565b5050505b505050565b81516001600160401b038111156200031457620003146200015b565b6200032c8162000325845462000267565b84620002a3565b602080601f8311600181146200036457600084156200034b5750858301515b600019600386901b1c1916600185901b178555620002ef565b600085815260208120601f198616915b82811015620003955788860151825594840194600190910190840162000374565b5085821015620003b45787850151600019600388901b60f8161c191681555b5050505050600190811b01905550565b6116a480620003d46000396000f3fe608060405234801561001057600080fd5b506004361061014d5760003560e01c806395d89b41116100c3578063ea2fe3cb1161007c578063ea2fe3cb146102bb578063efc8cbcd146102c3578063f1537686146102d6578063f2fde38b146102f0578063f46eccc414610303578063f9f2a7ce1461032657600080fd5b806395d89b4114610256578063a22cb4651461025e578063b88d4fde1461026c578063c87b56dd1461027f578063cf456ae714610292578063e985e9c5146102a557600080fd5b806323b872dd1161011557806323b872dd146101e357806342842e0e146101f65780636352211e1461020957806370a082311461021c578063715018a61461023d5780638da5cb5b1461024557600080fd5b806301ffc9a71461015257806306fdde031461017a578063081812fc1461018f578063095ea7b3146101bb5780630ca2900d146101d0575b600080fd5b610165610160366004611096565b610352565b60405190151581526020015b60405180910390f35b6101826103a4565b6040516101719190611103565b6101a361019d366004611116565b50600090565b6040516001600160a01b039091168152602001610171565b6101ce6101c936600461114b565b610436565b005b6101ce6101de366004611175565b610499565b6101ce6101f13660046111e7565b6104ec565b6101ce6102043660046111e7565b610577565b6101a3610217366004611116565b610597565b61022f61022a366004611223565b6105a2565b604051908152602001610171565b6101ce6105ea565b6006546001600160a01b03166101a3565b6101826105fe565b6101ce6101c936600461123e565b6101ce61027a366004611290565b61060d565b61018261028d366004611116565b610625565b6101ce6102a036600461123e565b6106d2565b6101656102b336600461136c565b600092915050565b610182610739565b6101ce6102d1366004611223565b610748565b61022f6102e4366004611223565b6001600160a01b031690565b6101ce6102fe366004611223565b6108ce565b610165610311366004611223565b60086020526000908152604090205460ff1681565b610165610334366004611223565b6001600160a01b031660009081526009602052604090205460ff1690565b60006001600160e01b031982166380ac58cd60e01b148061038357506001600160e01b03198216635b5e139f60e01b145b8061039e57506301ffc9a760e01b6001600160e01b03198316145b92915050565b6060600080546103b39061139f565b80601f01602080910402602001604051908101604052809291908181526020018280546103df9061139f565b801561042c5780601f106104015761010080835404028352916020019161042c565b820191906000526020600020905b81548152906001019060200180831161040f57829003601f168201915b5050505050905090565b60405162461bcd60e51b815260206004820152602d60248201527f4f524f42616467653a20536f756c626f756e6420746f6b656e732063616e6e6f60448201526c1d08189948185c1c1c9bdd9959609a1b60648201526084015b60405180910390fd5b6104a161090c565b60076104ae828483611421565b507f78c7ccfaba8afa1ad812d44b37d129c362db72f76cd8d16be98d12c5957c4b1982826040516104e09291906114e1565b60405180910390a15050565b6001600160a01b03821661051657604051633250574960e11b815260006004820152602401610490565b6000610523838333610939565b9050836001600160a01b0316816001600160a01b031614610571576040516364283d7b60e01b81526001600160a01b0380861660048301526024820184905282166044820152606401610490565b50505050565b6105928383836040518060200160405280600081525061060d565b505050565b600061039e826109e7565b60006001600160a01b0382166105ce576040516322718ad960e21b815260006004820152602401610490565b506001600160a01b031660009081526003602052604090205490565b6105f261090c565b6105fc6000610a20565b565b6060600180546103b39061139f565b6106188484846104ec565b6105713385858585610a72565b6000818152600260205260409020546060906001600160a01b031661069e5760405162461bcd60e51b815260206004820152602960248201527f4f524f42616467653a2055524920717565727920666f72206e6f6e657869737460448201526832b73a103a37b5b2b760b91b6064820152608401610490565b8160076106aa82610b9d565b6040516020016106bb929190611510565b604051602081830303815290604052915050919050565b6106da61090c565b6001600160a01b038216600081815260086020908152604091829020805460ff191685151590811790915591519182527fb21afb9ce9be0a676f8f317ff0ca072fb89a4f8ce2d1b6fe80f8755c14f1cb19910160405180910390a25050565b6060600780546103b39061139f565b3360009081526008602052604090205460ff166107a75760405162461bcd60e51b815260206004820181905260248201527f4f524f42616467653a204e6f7420617574686f72697a656420746f206d696e746044820152606401610490565b6001600160a01b03811661080b5760405162461bcd60e51b815260206004820152602560248201527f4f524f42616467653a2043616e6e6f74206d696e7420746f207a65726f206164604482015264647265737360d81b6064820152608401610490565b6001600160a01b03811660008181526009602052604090205460ff16156108665760405181906001600160a01b038416907f55869d292499264d300a3ca7541905d5d2cb92ddef6b0e9a44d048c72ac44cfb90600090a35050565b6001600160a01b0382166000908152600960205260409020805460ff191660011790556108938282610bb3565b60405181906001600160a01b038416907fc5e5b314108c1f776c2302351b8278910ddb812b122b2717b1bc973146145e9a90600090a35b5050565b6108d661090c565b6001600160a01b03811661090057604051631e4fbdf760e01b815260006004820152602401610490565b61090981610a20565b50565b6006546001600160a01b031633146105fc5760405163118cdaa760e01b8152336004820152602401610490565b60006001600160a01b0384161580159061096857506000838152600260205260409020546001600160a01b0316155b1561097f57610978848484610bcd565b90506109e0565b60405162461bcd60e51b815260206004820152603060248201527f4f524f42616467653a20536f756c626f756e6420746f6b656e732063616e6e6f60448201526f1d081899481d1c985b9cd9995c9c995960821b6064820152608401610490565b9392505050565b6000818152600260205260408120546001600160a01b03168061039e57604051637e27328960e01b815260048101849052602401610490565b600680546001600160a01b038381166001600160a01b0319831681179093556040519116919082907f8be0079c531659141344cd1fd0a4f28419497f9722a3daafe3b4186f6b6457e090600090a35050565b6001600160a01b0383163b15610b9657604051630a85bd0160e11b81526001600160a01b0384169063150b7a0290610ab49088908890879087906004016115a7565b6020604051808303816000875af1925050508015610aef575060408051601f3d908101601f19168201909252610aec918101906115e4565b60015b610b58573d808015610b1d576040519150601f19603f3d011682016040523d82523d6000602084013e610b22565b606091505b508051600003610b5057604051633250574960e11b81526001600160a01b0385166004820152602401610490565b805160208201fd5b6001600160e01b03198116630a85bd0160e11b14610b9457604051633250574960e11b81526001600160a01b0385166004820152602401610490565b505b5050505050565b606061039e6001600160a01b0383166014610cc6565b6108ca828260405180602001604052806000815250610e46565b6000828152600260205260408120546001600160a01b0390811690831615610bfa57610bfa818486610e5e565b6001600160a01b03811615610c3857610c17600085600080610ec2565b6001600160a01b038116600090815260036020526040902080546000190190555b6001600160a01b03851615610c67576001600160a01b0385166000908152600360205260409020805460010190555b60008481526002602052604080822080546001600160a01b0319166001600160a01b0389811691821790925591518793918516917fddf252ad1be2c89b69c2b068fc378daa952ba7f163c4a11628f55a4df523b3ef91a4949350505050565b6060826000610cd6846002611617565b610ce190600261162e565b67ffffffffffffffff811115610cf957610cf961127a565b6040519080825280601f01601f191660200182016040528015610d23576020820181803683370190505b509050600360fc1b81600081518110610d3e57610d3e611641565b60200101906001600160f81b031916908160001a905350600f60fb1b81600181518110610d6d57610d6d611641565b60200101906001600160f81b031916908160001a9053506000610d91856002611617565b610d9c90600161162e565b90505b6001811115610e14576f181899199a1a9b1b9c1cb0b131b232b360811b83600f1660108110610dd057610dd0611641565b1a60f81b828281518110610de657610de6611641565b60200101906001600160f81b031916908160001a90535060049290921c91610e0d81611657565b9050610d9f565b508115610e3e5760405163e22e27eb60e01b81526004810186905260248101859052604401610490565b949350505050565b610e508383610fbf565b610592336000858585610a72565b610e69838383611024565b610592576001600160a01b038316610e9757604051637e27328960e01b815260048101829052602401610490565b60405163177e802f60e01b81526001600160a01b038316600482015260248101829052604401610490565b8080610ed657506001600160a01b03821615155b15610f8f576000610ee6846109e7565b90506001600160a01b03831615801590610f125750826001600160a01b0316816001600160a01b031614155b8015610f1c575060015b15610f455760405163a9fbf51f60e01b81526001600160a01b0384166004820152602401610490565b8115610f8d5783856001600160a01b0316826001600160a01b03167f8c5be1e5ebec7d5bd14f71427d1e84f3dd0314c0f7b2291e5b200ac8c7c3b92560405160405180910390a45b505b5050600090815260046020526040902080546001600160a01b0319166001600160a01b0392909216919091179055565b6001600160a01b038216610fe957604051633250574960e11b815260006004820152602401610490565b6000610ff783836000610939565b90506001600160a01b03811615610592576040516339e3563760e11b815260006004820152602401610490565b60006001600160a01b03831615801590610e3e5750826001600160a01b0316846001600160a01b03161480611057575060005b80610e3e5750506000908152600460205260409020546001600160a01b03908116911614919050565b6001600160e01b03198116811461090957600080fd5b6000602082840312156110a857600080fd5b81356109e081611080565b60005b838110156110ce5781810151838201526020016110b6565b50506000910152565b600081518084526110ef8160208601602086016110b3565b601f01601f19169290920160200192915050565b6020815260006109e060208301846110d7565b60006020828403121561112857600080fd5b5035919050565b80356001600160a01b038116811461114657600080fd5b919050565b6000806040838503121561115e57600080fd5b6111678361112f565b946020939093013593505050565b6000806020838503121561118857600080fd5b823567ffffffffffffffff808211156111a057600080fd5b818501915085601f8301126111b457600080fd5b8135818111156111c357600080fd5b8660208285010111156111d557600080fd5b60209290920196919550909350505050565b6000806000606084860312156111fc57600080fd5b6112058461112f565b92506112136020850161112f565b9150604084013590509250925092565b60006020828403121561123557600080fd5b6109e08261112f565b6000806040838503121561125157600080fd5b61125a8361112f565b91506020830135801515811461126f57600080fd5b809150509250929050565b634e487b7160e01b600052604160045260246000fd5b600080600080608085870312156112a657600080fd5b6112af8561112f565b93506112bd6020860161112f565b925060408501359150606085013567ffffffffffffffff808211156112e157600080fd5b818701915087601f8301126112f557600080fd5b8135818111156113075761130761127a565b604051601f8201601f19908116603f0116810190838211818310171561132f5761132f61127a565b816040528281528a602084870101111561134857600080fd5b82602086016020830137600060208483010152809550505050505092959194509250565b6000806040838503121561137f57600080fd5b6113888361112f565b91506113966020840161112f565b90509250929050565b600181811c908216806113b357607f821691505b6020821081036113d357634e487b7160e01b600052602260045260246000fd5b50919050565b601f821115610592576000816000526020600020601f850160051c810160208610156114025750805b601f850160051c820191505b81811015610b945782815560010161140e565b67ffffffffffffffff8311156114395761143961127a565b61144d83611447835461139f565b836113d9565b6000601f84116001811461148157600085156114695750838201355b600019600387901b1c1916600186901b178355610b96565b600083815260209020601f19861690835b828110156114b25786850135825560209485019460019092019101611492565b50868210156114cf5760001960f88860031b161c19848701351681555b505060018560011b0183555050505050565b60208152816020820152818360408301376000818301604090810191909152601f909201601f19160101919050565b600080845461151e8161139f565b60018281168015611536576001811461154b5761157a565b60ff198416875282151583028701945061157a565b8860005260208060002060005b858110156115715781548a820152908401908201611558565b50505082870194505b50505050835161158e8183602088016110b3565b64173539b7b760d91b9101908152600501949350505050565b6001600160a01b03858116825284166020820152604081018390526080606082018190526000906115da908301846110d7565b9695505050505050565b6000602082840312156115f657600080fd5b81516109e081611080565b634e487b7160e01b600052601160045260246000fd5b808202811582820484141761039e5761039e611601565b8082018082111561039e5761039e611601565b634e487b7160e01b600052603260045260246000fd5b60008161166657611666611601565b50600019019056fea2646970667358221220cc03959df9af4c2333b445b23b16bfeb9ac2b165973a4315df9bc961090001ce64736f6c63430008180033",
  "linkReferences": {},
  "deployedLinkReferences": {}
}